{
  "_format": "hh-sol-artifact-1",
  "contractName": "NFTGenerator",
  "sourceName": "contracts/NFTGenerator.sol",
  "abi": [
    {
      "inputs": [],
      "stateMutability": "nonpayable",
      "type": "constructor"
    },
    {
      "anonymous": false,
      "inputs": [
        {
          "indexed": true,
          "internalType": "address",
          "name": "owner",
          "type": "address"
        },
        {
          "indexed": true,
          "internalType": "address",
          "name": "approved",
          "type": "address"
        },
        {
          "indexed": true,
          "internalType": "uint256",
          "name": "tokenId",
          "type": "uint256"
        }
      ],
      "name": "Approval",
      "type": "event"
    },
    {
      "anonymous": false,
      "inputs": [
        {
          "indexed": true,
          "internalType": "address",
          "name": "owner",
          "type": "address"
        },
        {
          "indexed": true,
          "internalType": "address",
          "name": "operator",
          "type": "address"
        },
        {
          "indexed": false,
          "internalType": "bool",
          "name": "approved",
          "type": "bool"
        }
      ],
      "name": "ApprovalForAll",
      "type": "event"
    },
    {
      "anonymous": false,
      "inputs": [
        {
          "indexed": true,
          "internalType": "address",
          "name": "from",
          "type": "address"
        },
        {
          "indexed": true,
          "internalType": "address",
          "name": "to",
          "type": "address"
        },
        {
          "indexed": true,
          "internalType": "uint256",
          "name": "tokenId",
          "type": "uint256"
        }
      ],
      "name": "Transfer",
      "type": "event"
    },
    {
      "inputs": [
        {
          "internalType": "address",
          "name": "to",
          "type": "address"
        },
        {
          "internalType": "uint256",
          "name": "tokenId",
          "type": "uint256"
        }
      ],
      "name": "approve",
      "outputs": [],
      "stateMutability": "nonpayable",
      "type": "function"
    },
    {
      "inputs": [
        {
          "internalType": "address",
          "name": "owner",
          "type": "address"
        }
      ],
      "name": "balanceOf",
      "outputs": [
        {
          "internalType": "uint256",
          "name": "",
          "type": "uint256"
        }
      ],
      "stateMutability": "view",
      "type": "function"
    },
    {
      "inputs": [],
      "name": "createNFT",
      "outputs": [],
      "stateMutability": "nonpayable",
      "type": "function"
    },
    {
      "inputs": [
        {
          "internalType": "uint256",
          "name": "tokenId",
          "type": "uint256"
        }
      ],
      "name": "getApproved",
      "outputs": [
        {
          "internalType": "address",
          "name": "",
          "type": "address"
        }
      ],
      "stateMutability": "view",
      "type": "function"
    },
    {
      "inputs": [
        {
          "internalType": "address",
          "name": "owner",
          "type": "address"
        },
        {
          "internalType": "address",
          "name": "operator",
          "type": "address"
        }
      ],
      "name": "isApprovedForAll",
      "outputs": [
        {
          "internalType": "bool",
          "name": "",
          "type": "bool"
        }
      ],
      "stateMutability": "view",
      "type": "function"
    },
    {
      "inputs": [],
      "name": "name",
      "outputs": [
        {
          "internalType": "string",
          "name": "",
          "type": "string"
        }
      ],
      "stateMutability": "view",
      "type": "function"
    },
    {
      "inputs": [
        {
          "internalType": "uint256",
          "name": "tokenId",
          "type": "uint256"
        }
      ],
      "name": "ownerOf",
      "outputs": [
        {
          "internalType": "address",
          "name": "",
          "type": "address"
        }
      ],
      "stateMutability": "view",
      "type": "function"
    },
    {
      "inputs": [
        {
          "internalType": "uint256",
          "name": "tokenId",
          "type": "uint256"
        }
      ],
      "name": "pickRandomFirstWord",
      "outputs": [
        {
          "internalType": "string",
          "name": "",
          "type": "string"
        }
      ],
      "stateMutability": "view",
      "type": "function"
    },
    {
      "inputs": [
        {
          "internalType": "uint256",
          "name": "tokenId",
          "type": "uint256"
        }
      ],
      "name": "pickRandomSecondWord",
      "outputs": [
        {
          "internalType": "string",
          "name": "",
          "type": "string"
        }
      ],
      "stateMutability": "view",
      "type": "function"
    },
    {
      "inputs": [
        {
          "internalType": "uint256",
          "name": "tokenId",
          "type": "uint256"
        }
      ],
      "name": "pickRandomThirdWord",
      "outputs": [
        {
          "internalType": "string",
          "name": "",
          "type": "string"
        }
      ],
      "stateMutability": "view",
      "type": "function"
    },
    {
      "inputs": [
        {
          "internalType": "address",
          "name": "from",
          "type": "address"
        },
        {
          "internalType": "address",
          "name": "to",
          "type": "address"
        },
        {
          "internalType": "uint256",
          "name": "tokenId",
          "type": "uint256"
        }
      ],
      "name": "safeTransferFrom",
      "outputs": [],
      "stateMutability": "nonpayable",
      "type": "function"
    },
    {
      "inputs": [
        {
          "internalType": "address",
          "name": "from",
          "type": "address"
        },
        {
          "internalType": "address",
          "name": "to",
          "type": "address"
        },
        {
          "internalType": "uint256",
          "name": "tokenId",
          "type": "uint256"
        },
        {
          "internalType": "bytes",
          "name": "data",
          "type": "bytes"
        }
      ],
      "name": "safeTransferFrom",
      "outputs": [],
      "stateMutability": "nonpayable",
      "type": "function"
    },
    {
      "inputs": [
        {
          "internalType": "address",
          "name": "operator",
          "type": "address"
        },
        {
          "internalType": "bool",
          "name": "approved",
          "type": "bool"
        }
      ],
      "name": "setApprovalForAll",
      "outputs": [],
      "stateMutability": "nonpayable",
      "type": "function"
    },
    {
      "inputs": [
        {
          "internalType": "bytes4",
          "name": "interfaceId",
          "type": "bytes4"
        }
      ],
      "name": "supportsInterface",
      "outputs": [
        {
          "internalType": "bool",
          "name": "",
          "type": "bool"
        }
      ],
      "stateMutability": "view",
      "type": "function"
    },
    {
      "inputs": [],
      "name": "symbol",
      "outputs": [
        {
          "internalType": "string",
          "name": "",
          "type": "string"
        }
      ],
      "stateMutability": "view",
      "type": "function"
    },
    {
      "inputs": [
        {
          "internalType": "uint256",
          "name": "tokenId",
          "type": "uint256"
        }
      ],
      "name": "tokenURI",
      "outputs": [
        {
          "internalType": "string",
          "name": "",
          "type": "string"
        }
      ],
      "stateMutability": "view",
      "type": "function"
    },
    {
      "inputs": [
        {
          "internalType": "address",
          "name": "from",
          "type": "address"
        },
        {
          "internalType": "address",
          "name": "to",
          "type": "address"
        },
        {
          "internalType": "uint256",
          "name": "tokenId",
          "type": "uint256"
        }
      ],
      "name": "transferFrom",
      "outputs": [],
      "stateMutability": "nonpayable",
      "type": "function"
    }
  ],
  "bytecode": "0x60806040526040518060a001604052806064815260200162004ed560649139600890816200002e9190620013d4565b506040518060600160405280603a815260200162004f5f603a913960099081620000599190620013d4565b5060405180606001604052806026815260200162004f3960269139600a9081620000849190620013d4565b506040518061028001604052806040518060400160405280600681526020017f373239323941000000000000000000000000000000000000000000000000000081525081526020016040518060400160405280600681526020017f334533303238000000000000000000000000000000000000000000000000000081525081526020016040518060400160405280600681526020017f373734383035000000000000000000000000000000000000000000000000000081525081526020016040518060400160405280600681526020017f463138394332000000000000000000000000000000000000000000000000000081525081526020016040518060400160405280600681526020017f443541393733000000000000000000000000000000000000000000000000000081525081526020016040518060400160405280600681526020017f453133303334000000000000000000000000000000000000000000000000000081525081526020016040518060400160405280600681526020017f393146463844000000000000000000000000000000000000000000000000000081525081526020016040518060400160405280600681526020017f353346434636000000000000000000000000000000000000000000000000000081525081526020016040518060400160405280600681526020017f383838463942000000000000000000000000000000000000000000000000000081525081526020016040518060400160405280600681526020017f304231353034000000000000000000000000000000000000000000000000000081525081526020016040518060400160405280600681526020017f333437324232000000000000000000000000000000000000000000000000000081525081526020016040518060400160405280600681526020017f443039303237000000000000000000000000000000000000000000000000000081525081526020016040518060400160405280600681526020017f343337383135000000000000000000000000000000000000000000000000000081525081526020016040518060400160405280600681526020017f453730323543000000000000000000000000000000000000000000000000000081525081526020016040518060400160405280600681526020017f333035454645000000000000000000000000000000000000000000000000000081525081526020016040518060400160405280600681526020017f304238354143000000000000000000000000000000000000000000000000000081525081526020016040518060400160405280600681526020017f464330393045000000000000000000000000000000000000000000000000000081525081526020016040518060400160405280600681526020017f373637373536000000000000000000000000000000000000000000000000000081525081526020016040518060400160405280600681526020017f303731363432000000000000000000000000000000000000000000000000000081525081526020016040518060400160405280600681526020017f3733384634310000000000000000000000000000000000000000000000000000815250815250600b9060146200053d9291906200106d565b506040518061028001604052806040518060400160405280600681526020017f314330384344000000000000000000000000000000000000000000000000000081525081526020016040518060400160405280600681526020017f413631454638000000000000000000000000000000000000000000000000000081525081526020016040518060400160405280600681526020017f304332384637000000000000000000000000000000000000000000000000000081525081526020016040518060400160405280600681526020017f424330433933000000000000000000000000000000000000000000000000000081525081526020016040518060400160405280600681526020017f444432434246000000000000000000000000000000000000000000000000000081525081526020016040518060400160405280600681526020017f433035414436000000000000000000000000000000000000000000000000000081525081526020016040518060400160405280600681526020017f314344394643000000000000000000000000000000000000000000000000000081525081526020016040518060400160405280600681526020017f343139463034000000000000000000000000000000000000000000000000000081525081526020016040518060400160405280600681526020017f303241453934000000000000000000000000000000000000000000000000000081525081526020016040518060400160405280600681526020017f413338333643000000000000000000000000000000000000000000000000000081525081526020016040518060400160405280600681526020017f364543453545000000000000000000000000000000000000000000000000000081525081526020016040518060400160405280600681526020017f303036383739000000000000000000000000000000000000000000000000000081525081526020016040518060400160405280600681526020017f413446384538000000000000000000000000000000000000000000000000000081525081526020016040518060400160405280600681526020017f363832443043000000000000000000000000000000000000000000000000000081525081526020016040518060400160405280600681526020017f343833453132000000000000000000000000000000000000000000000000000081525081526020016040518060400160405280600681526020017f324238303135000000000000000000000000000000000000000000000000000081525081526020016040518060400160405280600681526020017f453244354143000000000000000000000000000000000000000000000000000081525081526020016040518060400160405280600681526020017f443334433937000000000000000000000000000000000000000000000000000081525081526020016040518060400160405280600681526020017f334644393435000000000000000000000000000000000000000000000000000081525081526020016040518060400160405280600681526020017f3633394139330000000000000000000000000000000000000000000000000000815250815250600c906014620009f69291906200106d565b506040518061028001604052806040518060400160405280600681526020017f333641413433000000000000000000000000000000000000000000000000000081525081526020016040518060400160405280600681526020017f383746354335000000000000000000000000000000000000000000000000000081525081526020016040518060400160405280600681526020017f394438464244000000000000000000000000000000000000000000000000000081525081526020016040518060400160405280600681526020017f324643464234000000000000000000000000000000000000000000000000000081525081526020016040518060400160405280600681526020017f443430363441000000000000000000000000000000000000000000000000000081525081526020016040518060400160405280600681526020017f453431324235000000000000000000000000000000000000000000000000000081525081526020016040518060400160405280600681526020017f413631323146000000000000000000000000000000000000000000000000000081525081526020016040518060400160405280600681526020017f434531423443000000000000000000000000000000000000000000000000000081525081526020016040518060400160405280600681526020017f333233423134000000000000000000000000000000000000000000000000000081525081526020016040518060400160405280600681526020017f463344443734000000000000000000000000000000000000000000000000000081525081526020016040518060400160405280600681526020017f453142314531000000000000000000000000000000000000000000000000000081525081526020016040518060400160405280600681526020017f334445383635000000000000000000000000000000000000000000000000000081525081526020016040518060400160405280600681526020017f343831303742000000000000000000000000000000000000000000000000000081525081526020016040518060400160405280600681526020017f353242333635000000000000000000000000000000000000000000000000000081525081526020016040518060400160405280600681526020017f453341384631000000000000000000000000000000000000000000000000000081525081526020016040518060400160405280600681526020017f343238463644000000000000000000000000000000000000000000000000000081525081526020016040518060400160405280600681526020017f423731423738000000000000000000000000000000000000000000000000000081525081526020016040518060400160405280600681526020017f394337374535000000000000000000000000000000000000000000000000000081525081526020016040518060400160405280600681526020017f414530343332000000000000000000000000000000000000000000000000000081525081526020016040518060400160405280600681526020017f3539413536460000000000000000000000000000000000000000000000000000815250815250600d90601462000eaf9291906200106d565b5034801562000ebd57600080fd5b506040518060400160405280600781526020017f666c61674e4654000000000000000000000000000000000000000000000000008152506040518060400160405280600481526020017f464c414700000000000000000000000000000000000000000000000000000000815250816000908162000f3b9190620013d4565b50806001908162000f4d9190620013d4565b50505062000f9b6040518060400160405280601781526020017f546869732069732061204e465420636f6e74726163742e00000000000000000081525062000fa160201b62000eeb1760201c565b6200156e565b620010418160405160240162000fb891906200154a565b6040516020818303038152906040527f41304fac000000000000000000000000000000000000000000000000000000007bffffffffffffffffffffffffffffffffffffffffffffffffffffffff19166020820180517bffffffffffffffffffffffffffffffffffffffffffffffffffffffff83818316178352505050506200104460201b60201c565b50565b60008151905060006a636f6e736f6c652e6c6f679050602083016000808483855afa5050505050565b828054828255906000526020600020908101928215620010ba579160200282015b82811115620010b9578251829081620010a89190620013d4565b50916020019190600101906200108e565b5b509050620010c99190620010cd565b5090565b5b80821115620010f15760008181620010e79190620010f5565b50600101620010ce565b5090565b5080546200110390620011c3565b6000825580601f1062001117575062001138565b601f0160209004906000526020600020908101906200113791906200113b565b5b50565b5b80821115620011565760008160009055506001016200113c565b5090565b600081519050919050565b7f4e487b7100000000000000000000000000000000000000000000000000000000600052604160045260246000fd5b7f4e487b7100000000000000000000000000000000000000000000000000000000600052602260045260246000fd5b60006002820490506001821680620011dc57607f821691505b602082108103620011f257620011f162001194565b5b50919050565b60008190508160005260206000209050919050565b60006020601f8301049050919050565b600082821b905092915050565b6000600883026200125c7fffffffffffffffffffffffffffffffffffffffffffffffffffffffffffffffff826200121d565b6200126886836200121d565b95508019841693508086168417925050509392505050565b6000819050919050565b6000819050919050565b6000620012b5620012af620012a98462001280565b6200128a565b62001280565b9050919050565b6000819050919050565b620012d18362001294565b620012e9620012e082620012bc565b8484546200122a565b825550505050565b600090565b62001300620012f1565b6200130d818484620012c6565b505050565b5b81811015620013355762001329600082620012f6565b60018101905062001313565b5050565b601f82111562001384576200134e81620011f8565b62001359846200120d565b8101602085101562001369578190505b6200138162001378856200120d565b83018262001312565b50505b505050565b600082821c905092915050565b6000620013a96000198460080262001389565b1980831691505092915050565b6000620013c4838362001396565b9150826002028217905092915050565b620013df826200115a565b67ffffffffffffffff811115620013fb57620013fa62001165565b5b620014078254620011c3565b6200141482828562001339565b600060209050601f8311600181146200144c576000841562001437578287015190505b620014438582620013b6565b865550620014b3565b601f1984166200145c86620011f8565b60005b8281101562001486578489015182556001820191506020850194506020810190506200145f565b86831015620014a65784890151620014a2601f89168262001396565b8355505b6001600288020188555050505b505050505050565b600082825260208201905092915050565b60005b83811015620014ec578082015181840152602081019050620014cf565b60008484015250505050565b6000601f19601f8301169050919050565b600062001516826200115a565b620015228185620014bb565b935062001534818560208601620014cc565b6200153f81620014f8565b840191505092915050565b6000602082019050818103600083015262001566818462001509565b905092915050565b613957806200157e6000396000f3fe608060405234801561001057600080fd5b506004361061010b5760003560e01c806370a08231116100a2578063b187301f11610071578063b187301f146102b6578063b88d4fde146102e6578063c575757a14610302578063c87b56dd14610332578063e985e9c5146103625761010b565b806370a08231146102425780638a97ec2a1461027257806395d89b411461027c578063a22cb4651461029a5761010b565b806323b872dd116100de57806323b872dd146101aa5780632de38d68146101c657806342842e0e146101f65780636352211e146102125761010b565b806301ffc9a71461011057806306fdde0314610140578063081812fc1461015e578063095ea7b31461018e575b600080fd5b61012a60048036038101906101259190612269565b610392565b60405161013791906122b1565b60405180910390f35b610148610474565b604051610155919061235c565b60405180910390f35b610178600480360381019061017391906123b4565b610506565b6040516101859190612422565b60405180910390f35b6101a860048036038101906101a39190612469565b61054c565b005b6101c460048036038101906101bf91906124a9565b610663565b005b6101e060048036038101906101db91906123b4565b6106c3565b6040516101ed919061235c565b60405180910390f35b610210600480360381019061020b91906124a9565b6107bb565b005b61022c600480360381019061022791906123b4565b6107db565b6040516102399190612422565b60405180910390f35b61025c600480360381019061025791906124fc565b610861565b6040516102699190612538565b60405180910390f35b61027a610918565b005b610284610a4b565b604051610291919061235c565b60405180910390f35b6102b460048036038101906102af919061257f565b610add565b005b6102d060048036038101906102cb91906123b4565b610af3565b6040516102dd919061235c565b60405180910390f35b61030060048036038101906102fb91906126f4565b610beb565b005b61031c600480360381019061031791906123b4565b610c4d565b604051610329919061235c565b60405180910390f35b61034c600480360381019061034791906123b4565b610d45565b604051610359919061235c565b60405180910390f35b61037c60048036038101906103779190612777565b610e57565b60405161038991906122b1565b60405180910390f35b60007f80ac58cd000000000000000000000000000000000000000000000000000000007bffffffffffffffffffffffffffffffffffffffffffffffffffffffff1916827bffffffffffffffffffffffffffffffffffffffffffffffffffffffff1916148061045d57507f5b5e139f000000000000000000000000000000000000000000000000000000007bffffffffffffffffffffffffffffffffffffffffffffffffffffffff1916827bffffffffffffffffffffffffffffffffffffffffffffffffffffffff1916145b8061046d575061046c82610f84565b5b9050919050565b606060008054610483906127e6565b80601f01602080910402602001604051908101604052809291908181526020018280546104af906127e6565b80156104fc5780601f106104d1576101008083540402835291602001916104fc565b820191906000526020600020905b8154815290600101906020018083116104df57829003601f168201915b5050505050905090565b600061051182610fee565b6004600083815260200190815260200160002060009054906101000a900473ffffffffffffffffffffffffffffffffffffffff169050919050565b6000610557826107db565b90508073ffffffffffffffffffffffffffffffffffffffff168373ffffffffffffffffffffffffffffffffffffffff16036105c7576040517f08c379a00000000000000000000000000000000000000000000000000000000081526004016105be90612889565b60405180910390fd5b8073ffffffffffffffffffffffffffffffffffffffff166105e6611039565b73ffffffffffffffffffffffffffffffffffffffff16148061061557506106148161060f611039565b610e57565b5b610654576040517f08c379a000000000000000000000000000000000000000000000000000000000815260040161064b9061291b565b60405180910390fd5b61065e8383611041565b505050565b61067461066e611039565b826110fa565b6106b3576040517f08c379a00000000000000000000000000000000000000000000000000000000081526004016106aa906129ad565b60405180910390fd5b6106be83838361118f565b505050565b606060006106f76106d384611488565b6040516020016106e39190612a55565b604051602081830303815290604052611556565b9050600b805490508161070a9190612aa6565b9050600b81815481106107205761071f612ad7565b5b906000526020600020018054610735906127e6565b80601f0160208091040260200160405190810160405280929190818152602001828054610761906127e6565b80156107ae5780601f10610783576101008083540402835291602001916107ae565b820191906000526020600020905b81548152906001019060200180831161079157829003601f168201915b5050505050915050919050565b6107d683838360405180602001604052806000815250610beb565b505050565b6000806107e783611589565b9050600073ffffffffffffffffffffffffffffffffffffffff168173ffffffffffffffffffffffffffffffffffffffff1603610858576040517f08c379a000000000000000000000000000000000000000000000000000000000815260040161084f90612b52565b60405180910390fd5b80915050919050565b60008073ffffffffffffffffffffffffffffffffffffffff168273ffffffffffffffffffffffffffffffffffffffff16036108d1576040517f08c379a00000000000000000000000000000000000000000000000000000000081526004016108c890612be4565b60405180910390fd5b600360008373ffffffffffffffffffffffffffffffffffffffff1673ffffffffffffffffffffffffffffffffffffffff168152602001908152602001600020549050919050565b600061092460076115c6565b90506000610931826106c3565b9050600061093e83610af3565b9050600061094b84610c4d565b9050600083838360405160200161096493929190612c04565b60405160208183030381529060405290506000600885600986600a8760405160200161099596959493929190612d19565b604051602081830303815290604052905060006109da836109b5846115d4565b6040516020016109c6929190612ed2565b6040516020818303038152906040526115d4565b90506000816040516020016109ef9190612f63565b6040516020818303038152906040529050610a0a338961176b565b610a148882611789565b610a1e60076117f6565b610a416040518060600160405280602581526020016138bd60259139893361180c565b5050505050505050565b606060018054610a5a906127e6565b80601f0160208091040260200160405190810160405280929190818152602001828054610a86906127e6565b8015610ad35780601f10610aa857610100808354040283529160200191610ad3565b820191906000526020600020905b815481529060010190602001808311610ab657829003601f168201915b5050505050905090565b610aef610ae8611039565b83836118ab565b5050565b60606000610b27610b0384611488565b604051602001610b139190612fd1565b604051602081830303815290604052611556565b9050600c8054905081610b3a9190612aa6565b9050600c8181548110610b5057610b4f612ad7565b5b906000526020600020018054610b65906127e6565b80601f0160208091040260200160405190810160405280929190818152602001828054610b91906127e6565b8015610bde5780601f10610bb357610100808354040283529160200191610bde565b820191906000526020600020905b815481529060010190602001808311610bc157829003601f168201915b5050505050915050919050565b610bfc610bf6611039565b836110fa565b610c3b576040517f08c379a0000000000000000000000000000000000000000000000000000000008152600401610c32906129ad565b60405180910390fd5b610c4784848484611a17565b50505050565b60606000610c81610c5d84611488565b604051602001610c6d919061303f565b604051602081830303815290604052611556565b9050600d8054905081610c949190612aa6565b9050600d8181548110610caa57610ca9612ad7565b5b906000526020600020018054610cbf906127e6565b80601f0160208091040260200160405190810160405280929190818152602001828054610ceb906127e6565b8015610d385780601f10610d0d57610100808354040283529160200191610d38565b820191906000526020600020905b815481529060010190602001808311610d1b57829003601f168201915b5050505050915050919050565b6060610d5082610fee565b6000600660008481526020019081526020016000208054610d70906127e6565b80601f0160208091040260200160405190810160405280929190818152602001828054610d9c906127e6565b8015610de95780601f10610dbe57610100808354040283529160200191610de9565b820191906000526020600020905b815481529060010190602001808311610dcc57829003601f168201915b505050505090506000610dfa611a73565b90506000815103610e0f578192505050610e52565b600082511115610e44578082604051602001610e2c929190613061565b60405160208183030381529060405292505050610e52565b610e4d84611a8a565b925050505b919050565b6000600560008473ffffffffffffffffffffffffffffffffffffffff1673ffffffffffffffffffffffffffffffffffffffff16815260200190815260200160002060008373ffffffffffffffffffffffffffffffffffffffff1673ffffffffffffffffffffffffffffffffffffffff16815260200190815260200160002060009054906101000a900460ff16905092915050565b610f8181604051602401610eff919061235c565b6040516020818303038152906040527f41304fac000000000000000000000000000000000000000000000000000000007bffffffffffffffffffffffffffffffffffffffffffffffffffffffff19166020820180517bffffffffffffffffffffffffffffffffffffffffffffffffffffffff8381831617835250505050611af2565b50565b60007f01ffc9a7000000000000000000000000000000000000000000000000000000007bffffffffffffffffffffffffffffffffffffffffffffffffffffffff1916827bffffffffffffffffffffffffffffffffffffffffffffffffffffffff1916149050919050565b610ff781611b1b565b611036576040517f08c379a000000000000000000000000000000000000000000000000000000000815260040161102d90612b52565b60405180910390fd5b50565b600033905090565b816004600083815260200190815260200160002060006101000a81548173ffffffffffffffffffffffffffffffffffffffff021916908373ffffffffffffffffffffffffffffffffffffffff160217905550808273ffffffffffffffffffffffffffffffffffffffff166110b4836107db565b73ffffffffffffffffffffffffffffffffffffffff167f8c5be1e5ebec7d5bd14f71427d1e84f3dd0314c0f7b2291e5b200ac8c7c3b92560405160405180910390a45050565b600080611106836107db565b90508073ffffffffffffffffffffffffffffffffffffffff168473ffffffffffffffffffffffffffffffffffffffff16148061114857506111478185610e57565b5b8061118657508373ffffffffffffffffffffffffffffffffffffffff1661116e84610506565b73ffffffffffffffffffffffffffffffffffffffff16145b91505092915050565b8273ffffffffffffffffffffffffffffffffffffffff166111af826107db565b73ffffffffffffffffffffffffffffffffffffffff1614611205576040517f08c379a00000000000000000000000000000000000000000000000000000000081526004016111fc906130f7565b60405180910390fd5b600073ffffffffffffffffffffffffffffffffffffffff168273ffffffffffffffffffffffffffffffffffffffff1603611274576040517f08c379a000000000000000000000000000000000000000000000000000000000815260040161126b90613189565b60405180910390fd5b6112818383836001611b5c565b8273ffffffffffffffffffffffffffffffffffffffff166112a1826107db565b73ffffffffffffffffffffffffffffffffffffffff16146112f7576040517f08c379a00000000000000000000000000000000000000000000000000000000081526004016112ee906130f7565b60405180910390fd5b6004600082815260200190815260200160002060006101000a81549073ffffffffffffffffffffffffffffffffffffffff02191690556001600360008573ffffffffffffffffffffffffffffffffffffffff1673ffffffffffffffffffffffffffffffffffffffff168152602001908152602001600020600082825403925050819055506001600360008473ffffffffffffffffffffffffffffffffffffffff1673ffffffffffffffffffffffffffffffffffffffff16815260200190815260200160002060008282540192505081905550816002600083815260200190815260200160002060006101000a81548173ffffffffffffffffffffffffffffffffffffffff021916908373ffffffffffffffffffffffffffffffffffffffff160217905550808273ffffffffffffffffffffffffffffffffffffffff168473ffffffffffffffffffffffffffffffffffffffff167fddf252ad1be2c89b69c2b068fc378daa952ba7f163c4a11628f55a4df523b3ef60405160405180910390a46114838383836001611c82565b505050565b60606000600161149784611c88565b01905060008167ffffffffffffffff8111156114b6576114b56125c9565b5b6040519080825280601f01601f1916602001820160405280156114e85781602001600182028036833780820191505090505b509050600082602001820190505b60011561154b578080600190039150507f3031323334353637383961626364656600000000000000000000000000000000600a86061a8153600a858161153f5761153e612a77565b5b049450600085036114f6575b819350505050919050565b60008160405160200161156991906131a9565b6040516020818303038152906040528051906020012060001c9050919050565b60006002600083815260200190815260200160002060009054906101000a900473ffffffffffffffffffffffffffffffffffffffff169050919050565b600081600001549050919050565b6060600082519050600081036115fc5760405180602001604052806000815250915050611766565b6000600360028361160d91906131ef565b6116179190613223565b60046116239190613254565b9050600060208261163491906131ef565b67ffffffffffffffff81111561164d5761164c6125c9565b5b6040519080825280601f01601f19166020018201604052801561167f5781602001600182028036833780820191505090505b50905060006040518060600160405280604081526020016138e2604091399050600181016020830160005b868110156117235760038101905062ffffff818a015116603f8160121c168401518060081b905060ff603f83600c1c1686015116810190508060081b905060ff603f8360061c1686015116810190508060081b905060ff603f831686015116810190508060e01b905080845260048401935050506116aa565b50600386066001811461173d576002811461174d57611758565b613d3d60f01b6002830352611758565b603d60f81b60018303525b508484525050819450505050505b919050565b611785828260405180602001604052806000815250611ddb565b5050565b61179282611b1b565b6117d1576040517f08c379a00000000000000000000000000000000000000000000000000000000081526004016117c890613308565b60405180910390fd5b806006600084815260200190815260200160002090816117f191906134bf565b505050565b6001816000016000828254019250508190555050565b6118a683838360405160240161182493929190613591565b6040516020818303038152906040527f1c7ec448000000000000000000000000000000000000000000000000000000007bffffffffffffffffffffffffffffffffffffffffffffffffffffffff19166020820180517bffffffffffffffffffffffffffffffffffffffffffffffffffffffff8381831617835250505050611af2565b505050565b8173ffffffffffffffffffffffffffffffffffffffff168373ffffffffffffffffffffffffffffffffffffffff1603611919576040517f08c379a00000000000000000000000000000000000000000000000000000000081526004016119109061361b565b60405180910390fd5b80600560008573ffffffffffffffffffffffffffffffffffffffff1673ffffffffffffffffffffffffffffffffffffffff16815260200190815260200160002060008473ffffffffffffffffffffffffffffffffffffffff1673ffffffffffffffffffffffffffffffffffffffff16815260200190815260200160002060006101000a81548160ff0219169083151502179055508173ffffffffffffffffffffffffffffffffffffffff168373ffffffffffffffffffffffffffffffffffffffff167f17307eab39ab6107e8899845ad3d59bd9653f200f220920489ca2b5937696c3183604051611a0a91906122b1565b60405180910390a3505050565b611a2284848461118f565b611a2e84848484611e36565b611a6d576040517f08c379a0000000000000000000000000000000000000000000000000000000008152600401611a64906136ad565b60405180910390fd5b50505050565b606060405180602001604052806000815250905090565b6060611a9582610fee565b6000611a9f611a73565b90506000815111611abf5760405180602001604052806000815250611aea565b80611ac984611488565b604051602001611ada929190613061565b6040516020818303038152906040525b915050919050565b60008151905060006a636f6e736f6c652e6c6f679050602083016000808483855afa5050505050565b60008073ffffffffffffffffffffffffffffffffffffffff16611b3d83611589565b73ffffffffffffffffffffffffffffffffffffffff1614159050919050565b6001811115611c7c57600073ffffffffffffffffffffffffffffffffffffffff168473ffffffffffffffffffffffffffffffffffffffff1614611bf05780600360008673ffffffffffffffffffffffffffffffffffffffff1673ffffffffffffffffffffffffffffffffffffffff1681526020019081526020016000206000828254611be891906136cd565b925050819055505b600073ffffffffffffffffffffffffffffffffffffffff168373ffffffffffffffffffffffffffffffffffffffff1614611c7b5780600360008573ffffffffffffffffffffffffffffffffffffffff1673ffffffffffffffffffffffffffffffffffffffff1681526020019081526020016000206000828254611c7391906131ef565b925050819055505b5b50505050565b50505050565b600080600090507a184f03e93ff9f4daa797ed6e38ed64bf6a1f0100000000000000008310611ce6577a184f03e93ff9f4daa797ed6e38ed64bf6a1f0100000000000000008381611cdc57611cdb612a77565b5b0492506040810190505b6d04ee2d6d415b85acef81000000008310611d23576d04ee2d6d415b85acef81000000008381611d1957611d18612a77565b5b0492506020810190505b662386f26fc100008310611d5257662386f26fc100008381611d4857611d47612a77565b5b0492506010810190505b6305f5e1008310611d7b576305f5e1008381611d7157611d70612a77565b5b0492506008810190505b6127108310611da0576127108381611d9657611d95612a77565b5b0492506004810190505b60648310611dc35760648381611db957611db8612a77565b5b0492506002810190505b600a8310611dd2576001810190505b80915050919050565b611de58383611fbd565b611df26000848484611e36565b611e31576040517f08c379a0000000000000000000000000000000000000000000000000000000008152600401611e28906136ad565b60405180910390fd5b505050565b6000611e578473ffffffffffffffffffffffffffffffffffffffff166121da565b15611fb0578373ffffffffffffffffffffffffffffffffffffffff1663150b7a02611e80611039565b8786866040518563ffffffff1660e01b8152600401611ea29493929190613756565b6020604051808303816000875af1925050508015611ede57506040513d601f19601f82011682018060405250810190611edb91906137b7565b60015b611f60573d8060008114611f0e576040519150601f19603f3d011682016040523d82523d6000602084013e611f13565b606091505b506000815103611f58576040517f08c379a0000000000000000000000000000000000000000000000000000000008152600401611f4f906136ad565b60405180910390fd5b805181602001fd5b63150b7a0260e01b7bffffffffffffffffffffffffffffffffffffffffffffffffffffffff1916817bffffffffffffffffffffffffffffffffffffffffffffffffffffffff191614915050611fb5565b600190505b949350505050565b600073ffffffffffffffffffffffffffffffffffffffff168273ffffffffffffffffffffffffffffffffffffffff160361202c576040517f08c379a000000000000000000000000000000000000000000000000000000000815260040161202390613830565b60405180910390fd5b61203581611b1b565b15612075576040517f08c379a000000000000000000000000000000000000000000000000000000000815260040161206c9061389c565b60405180910390fd5b612083600083836001611b5c565b61208c81611b1b565b156120cc576040517f08c379a00000000000000000000000000000000000000000000000000000000081526004016120c39061389c565b60405180910390fd5b6001600360008473ffffffffffffffffffffffffffffffffffffffff1673ffffffffffffffffffffffffffffffffffffffff16815260200190815260200160002060008282540192505081905550816002600083815260200190815260200160002060006101000a81548173ffffffffffffffffffffffffffffffffffffffff021916908373ffffffffffffffffffffffffffffffffffffffff160217905550808273ffffffffffffffffffffffffffffffffffffffff16600073ffffffffffffffffffffffffffffffffffffffff167fddf252ad1be2c89b69c2b068fc378daa952ba7f163c4a11628f55a4df523b3ef60405160405180910390a46121d6600083836001611c82565b5050565b6000808273ffffffffffffffffffffffffffffffffffffffff163b119050919050565b6000604051905090565b600080fd5b600080fd5b60007fffffffff0000000000000000000000000000000000000000000000000000000082169050919050565b61224681612211565b811461225157600080fd5b50565b6000813590506122638161223d565b92915050565b60006020828403121561227f5761227e612207565b5b600061228d84828501612254565b91505092915050565b60008115159050919050565b6122ab81612296565b82525050565b60006020820190506122c660008301846122a2565b92915050565b600081519050919050565b600082825260208201905092915050565b60005b838110156123065780820151818401526020810190506122eb565b60008484015250505050565b6000601f19601f8301169050919050565b600061232e826122cc565b61233881856122d7565b93506123488185602086016122e8565b61235181612312565b840191505092915050565b600060208201905081810360008301526123768184612323565b905092915050565b6000819050919050565b6123918161237e565b811461239c57600080fd5b50565b6000813590506123ae81612388565b92915050565b6000602082840312156123ca576123c9612207565b5b60006123d88482850161239f565b91505092915050565b600073ffffffffffffffffffffffffffffffffffffffff82169050919050565b600061240c826123e1565b9050919050565b61241c81612401565b82525050565b60006020820190506124376000830184612413565b92915050565b61244681612401565b811461245157600080fd5b50565b6000813590506124638161243d565b92915050565b600080604083850312156124805761247f612207565b5b600061248e85828601612454565b925050602061249f8582860161239f565b9150509250929050565b6000806000606084860312156124c2576124c1612207565b5b60006124d086828701612454565b93505060206124e186828701612454565b92505060406124f28682870161239f565b9150509250925092565b60006020828403121561251257612511612207565b5b600061252084828501612454565b91505092915050565b6125328161237e565b82525050565b600060208201905061254d6000830184612529565b92915050565b61255c81612296565b811461256757600080fd5b50565b60008135905061257981612553565b92915050565b6000806040838503121561259657612595612207565b5b60006125a485828601612454565b92505060206125b58582860161256a565b9150509250929050565b600080fd5b600080fd5b7f4e487b7100000000000000000000000000000000000000000000000000000000600052604160045260246000fd5b61260182612312565b810181811067ffffffffffffffff821117156126205761261f6125c9565b5b80604052505050565b60006126336121fd565b905061263f82826125f8565b919050565b600067ffffffffffffffff82111561265f5761265e6125c9565b5b61266882612312565b9050602081019050919050565b82818337600083830152505050565b600061269761269284612644565b612629565b9050828152602081018484840111156126b3576126b26125c4565b5b6126be848285612675565b509392505050565b600082601f8301126126db576126da6125bf565b5b81356126eb848260208601612684565b91505092915050565b6000806000806080858703121561270e5761270d612207565b5b600061271c87828801612454565b945050602061272d87828801612454565b935050604061273e8782880161239f565b925050606085013567ffffffffffffffff81111561275f5761275e61220c565b5b61276b878288016126c6565b91505092959194509250565b6000806040838503121561278e5761278d612207565b5b600061279c85828601612454565b92505060206127ad85828601612454565b9150509250929050565b7f4e487b7100000000000000000000000000000000000000000000000000000000600052602260045260246000fd5b600060028204905060018216806127fe57607f821691505b602082108103612811576128106127b7565b5b50919050565b7f4552433732313a20617070726f76616c20746f2063757272656e74206f776e6560008201527f7200000000000000000000000000000000000000000000000000000000000000602082015250565b60006128736021836122d7565b915061287e82612817565b604082019050919050565b600060208201905081810360008301526128a281612866565b9050919050565b7f4552433732313a20617070726f76652063616c6c6572206973206e6f7420746f60008201527f6b656e206f776e6572206f7220617070726f76656420666f7220616c6c000000602082015250565b6000612905603d836122d7565b9150612910826128a9565b604082019050919050565b60006020820190508181036000830152612934816128f8565b9050919050565b7f4552433732313a2063616c6c6572206973206e6f7420746f6b656e206f776e6560008201527f72206f7220617070726f76656400000000000000000000000000000000000000602082015250565b6000612997602d836122d7565b91506129a28261293b565b604082019050919050565b600060208201905081810360008301526129c68161298a565b9050919050565b600081905092915050565b7f46495253545f574f524400000000000000000000000000000000000000000000600082015250565b6000612a0e600a836129cd565b9150612a19826129d8565b600a82019050919050565b6000612a2f826122cc565b612a3981856129cd565b9350612a498185602086016122e8565b80840191505092915050565b6000612a6082612a01565b9150612a6c8284612a24565b915081905092915050565b7f4e487b7100000000000000000000000000000000000000000000000000000000600052601260045260246000fd5b6000612ab18261237e565b9150612abc8361237e565b925082612acc57612acb612a77565b5b828206905092915050565b7f4e487b7100000000000000000000000000000000000000000000000000000000600052603260045260246000fd5b7f4552433732313a20696e76616c696420746f6b656e2049440000000000000000600082015250565b6000612b3c6018836122d7565b9150612b4782612b06565b602082019050919050565b60006020820190508181036000830152612b6b81612b2f565b9050919050565b7f4552433732313a2061646472657373207a65726f206973206e6f74206120766160008201527f6c6964206f776e65720000000000000000000000000000000000000000000000602082015250565b6000612bce6029836122d7565b9150612bd982612b72565b604082019050919050565b60006020820190508181036000830152612bfd81612bc1565b9050919050565b6000612c108286612a24565b9150612c1c8285612a24565b9150612c288284612a24565b9150819050949350505050565b60008190508160005260206000209050919050565b60008154612c57816127e6565b612c6181866129cd565b94506001821660008114612c7c5760018114612c9157612cc4565b60ff1983168652811515820286019350612cc4565b612c9a85612c35565b60005b83811015612cbc57815481890152600182019150602081019050612c9d565b838801955050505b50505092915050565b7f272f3e3c2f7376673e0000000000000000000000000000000000000000000000600082015250565b6000612d036009836129cd565b9150612d0e82612ccd565b600982019050919050565b6000612d258289612c4a565b9150612d318288612a24565b9150612d3d8287612c4a565b9150612d498286612a24565b9150612d558285612c4a565b9150612d618284612a24565b9150612d6c82612cf6565b9150819050979650505050505050565b7f7b226e616d65223a2022466c6167000000000000000000000000000000000000600082015250565b6000612db2600e836129cd565b9150612dbd82612d7c565b600e82019050919050565b7f222c20226465736372697074696f6e223a20224120686967686c79206163636c60008201527f61696d656420636f6c6c656374696f6e206f6620666c6167732e222c2022696d60208201527f616765223a2022646174613a696d6167652f7376672b786d6c3b62617365363460408201527f2c00000000000000000000000000000000000000000000000000000000000000606082015250565b6000612e706061836129cd565b9150612e7b82612dc8565b606182019050919050565b7f227d000000000000000000000000000000000000000000000000000000000000600082015250565b6000612ebc6002836129cd565b9150612ec782612e86565b600282019050919050565b6000612edd82612da5565b9150612ee98285612a24565b9150612ef482612e63565b9150612f008284612a24565b9150612f0b82612eaf565b91508190509392505050565b7f646174613a6170706c69636174696f6e2f6a736f6e3b6261736536342c000000600082015250565b6000612f4d601d836129cd565b9150612f5882612f17565b601d82019050919050565b6000612f6e82612f40565b9150612f7a8284612a24565b915081905092915050565b7f5345434f4e445f574f5244000000000000000000000000000000000000000000600082015250565b6000612fbb600b836129cd565b9150612fc682612f85565b600b82019050919050565b6000612fdc82612fae565b9150612fe88284612a24565b915081905092915050565b7f54484952445f574f524400000000000000000000000000000000000000000000600082015250565b6000613029600a836129cd565b915061303482612ff3565b600a82019050919050565b600061304a8261301c565b91506130568284612a24565b915081905092915050565b600061306d8285612a24565b91506130798284612a24565b91508190509392505050565b7f4552433732313a207472616e736665722066726f6d20696e636f72726563742060008201527f6f776e6572000000000000000000000000000000000000000000000000000000602082015250565b60006130e16025836122d7565b91506130ec82613085565b604082019050919050565b60006020820190508181036000830152613110816130d4565b9050919050565b7f4552433732313a207472616e7366657220746f20746865207a65726f2061646460008201527f7265737300000000000000000000000000000000000000000000000000000000602082015250565b60006131736024836122d7565b915061317e82613117565b604082019050919050565b600060208201905081810360008301526131a281613166565b9050919050565b60006131b58284612a24565b915081905092915050565b7f4e487b7100000000000000000000000000000000000000000000000000000000600052601160045260246000fd5b60006131fa8261237e565b91506132058361237e565b925082820190508082111561321d5761321c6131c0565b5b92915050565b600061322e8261237e565b91506132398361237e565b92508261324957613248612a77565b5b828204905092915050565b600061325f8261237e565b915061326a8361237e565b92508282026132788161237e565b9150828204841483151761328f5761328e6131c0565b5b5092915050565b7f45524337323155524953746f726167653a2055524920736574206f66206e6f6e60008201527f6578697374656e7420746f6b656e000000000000000000000000000000000000602082015250565b60006132f2602e836122d7565b91506132fd82613296565b604082019050919050565b60006020820190508181036000830152613321816132e5565b9050919050565b60006020601f8301049050919050565b600082821b905092915050565b6000600883026133757fffffffffffffffffffffffffffffffffffffffffffffffffffffffffffffffff82613338565b61337f8683613338565b95508019841693508086168417925050509392505050565b6000819050919050565b60006133bc6133b76133b28461237e565b613397565b61237e565b9050919050565b6000819050919050565b6133d6836133a1565b6133ea6133e2826133c3565b848454613345565b825550505050565b600090565b6133ff6133f2565b61340a8184846133cd565b505050565b5b8181101561342e576134236000826133f7565b600181019050613410565b5050565b601f8211156134735761344481612c35565b61344d84613328565b8101602085101561345c578190505b61347061346885613328565b83018261340f565b50505b505050565b600082821c905092915050565b600061349660001984600802613478565b1980831691505092915050565b60006134af8383613485565b9150826002028217905092915050565b6134c8826122cc565b67ffffffffffffffff8111156134e1576134e06125c9565b5b6134eb82546127e6565b6134f6828285613432565b600060209050601f8311600181146135295760008415613517578287015190505b61352185826134a3565b865550613589565b601f19841661353786612c35565b60005b8281101561355f5784890151825560018201915060208501945060208101905061353a565b8683101561357c5784890151613578601f891682613485565b8355505b6001600288020188555050505b505050505050565b600060608201905081810360008301526135ab8186612323565b90506135ba6020830185612529565b6135c76040830184612413565b949350505050565b7f4552433732313a20617070726f766520746f2063616c6c657200000000000000600082015250565b60006136056019836122d7565b9150613610826135cf565b602082019050919050565b60006020820190508181036000830152613634816135f8565b9050919050565b7f4552433732313a207472616e7366657220746f206e6f6e20455243373231526560008201527f63656976657220696d706c656d656e7465720000000000000000000000000000602082015250565b60006136976032836122d7565b91506136a28261363b565b604082019050919050565b600060208201905081810360008301526136c68161368a565b9050919050565b60006136d88261237e565b91506136e38361237e565b92508282039050818111156136fb576136fa6131c0565b5b92915050565b600081519050919050565b600082825260208201905092915050565b600061372882613701565b613732818561370c565b93506137428185602086016122e8565b61374b81612312565b840191505092915050565b600060808201905061376b6000830187612413565b6137786020830186612413565b6137856040830185612529565b8181036060830152613797818461371d565b905095945050505050565b6000815190506137b18161223d565b92915050565b6000602082840312156137cd576137cc612207565b5b60006137db848285016137a2565b91505092915050565b7f4552433732313a206d696e7420746f20746865207a65726f2061646472657373600082015250565b600061381a6020836122d7565b9150613825826137e4565b602082019050919050565b600060208201905081810360008301526138498161380d565b9050919050565b7f4552433732313a20746f6b656e20616c7265616479206d696e74656400000000600082015250565b6000613886601c836122d7565b915061389182613850565b602082019050919050565b600060208201905081810360008301526138b581613879565b905091905056fe416e204e465420772f20494420257320686173206265656e206d696e74656420746f2025734142434445464748494a4b4c4d4e4f505152535455565758595a6162636465666768696a6b6c6d6e6f707172737475767778797a303132333435363738392b2fa2646970667358221220a9bcc3097424f6074b176025a1f4de0b6be8c9171fae005811c93f27a00840d164736f6c634300081100333c7376672076696577426f783d273020302039303020363030272077696474683d2739303027206865696768743d273630302720786d6c6e733d27687474703a2f2f7777772e77332e6f72672f323030302f737667273e3c706174682066696c6c3d2723272f3e3c7061746820643d274d3020333939683930307632303248305a272066696c6c3d27232720643d274d302030683930307636303048307a272f3e3c7061746820643d274d3020313939683930307634303248305a272066696c6c3d2723",
  "linkReferences": {},
  "deployedLinkReferences": {}
}