{
  "_format": "hh-sol-artifact-1",
  "contractName": "NFTGenerator",
  "sourceName": "contracts/NFTGenerator.sol",
  "abi": [
    {
      "inputs": [],
      "stateMutability": "nonpayable",
      "type": "constructor"
    },
    {
      "anonymous": false,
      "inputs": [
        {
          "indexed": true,
          "internalType": "address",
          "name": "owner",
          "type": "address"
        },
        {
          "indexed": true,
          "internalType": "address",
          "name": "approved",
          "type": "address"
        },
        {
          "indexed": true,
          "internalType": "uint256",
          "name": "tokenId",
          "type": "uint256"
        }
      ],
      "name": "Approval",
      "type": "event"
    },
    {
      "anonymous": false,
      "inputs": [
        {
          "indexed": true,
          "internalType": "address",
          "name": "owner",
          "type": "address"
        },
        {
          "indexed": true,
          "internalType": "address",
          "name": "operator",
          "type": "address"
        },
        {
          "indexed": false,
          "internalType": "bool",
          "name": "approved",
          "type": "bool"
        }
      ],
      "name": "ApprovalForAll",
      "type": "event"
    },
    {
      "anonymous": false,
      "inputs": [
        {
          "indexed": true,
          "internalType": "address",
          "name": "from",
          "type": "address"
        },
        {
          "indexed": true,
          "internalType": "address",
          "name": "to",
          "type": "address"
        },
        {
          "indexed": true,
          "internalType": "uint256",
          "name": "tokenId",
          "type": "uint256"
        }
      ],
      "name": "Transfer",
      "type": "event"
    },
    {
      "inputs": [
        {
          "internalType": "address",
          "name": "to",
          "type": "address"
        },
        {
          "internalType": "uint256",
          "name": "tokenId",
          "type": "uint256"
        }
      ],
      "name": "approve",
      "outputs": [],
      "stateMutability": "nonpayable",
      "type": "function"
    },
    {
      "inputs": [
        {
          "internalType": "address",
          "name": "owner",
          "type": "address"
        }
      ],
      "name": "balanceOf",
      "outputs": [
        {
          "internalType": "uint256",
          "name": "",
          "type": "uint256"
        }
      ],
      "stateMutability": "view",
      "type": "function"
    },
    {
      "inputs": [],
      "name": "createNFT",
      "outputs": [],
      "stateMutability": "nonpayable",
      "type": "function"
    },
    {
      "inputs": [
        {
          "internalType": "uint256",
          "name": "tokenId",
          "type": "uint256"
        }
      ],
      "name": "getApproved",
      "outputs": [
        {
          "internalType": "address",
          "name": "",
          "type": "address"
        }
      ],
      "stateMutability": "view",
      "type": "function"
    },
    {
      "inputs": [
        {
          "internalType": "address",
          "name": "owner",
          "type": "address"
        },
        {
          "internalType": "address",
          "name": "operator",
          "type": "address"
        }
      ],
      "name": "isApprovedForAll",
      "outputs": [
        {
          "internalType": "bool",
          "name": "",
          "type": "bool"
        }
      ],
      "stateMutability": "view",
      "type": "function"
    },
    {
      "inputs": [],
      "name": "name",
      "outputs": [
        {
          "internalType": "string",
          "name": "",
          "type": "string"
        }
      ],
      "stateMutability": "view",
      "type": "function"
    },
    {
      "inputs": [
        {
          "internalType": "uint256",
          "name": "tokenId",
          "type": "uint256"
        }
      ],
      "name": "ownerOf",
      "outputs": [
        {
          "internalType": "address",
          "name": "",
          "type": "address"
        }
      ],
      "stateMutability": "view",
      "type": "function"
    },
    {
      "inputs": [
        {
          "internalType": "uint256",
          "name": "tokenId",
          "type": "uint256"
        }
      ],
      "name": "pickRandomFirstWord",
      "outputs": [
        {
          "internalType": "string",
          "name": "",
          "type": "string"
        }
      ],
      "stateMutability": "view",
      "type": "function"
    },
    {
      "inputs": [
        {
          "internalType": "uint256",
          "name": "tokenId",
          "type": "uint256"
        }
      ],
      "name": "pickRandomSecondWord",
      "outputs": [
        {
          "internalType": "string",
          "name": "",
          "type": "string"
        }
      ],
      "stateMutability": "view",
      "type": "function"
    },
    {
      "inputs": [
        {
          "internalType": "uint256",
          "name": "tokenId",
          "type": "uint256"
        }
      ],
      "name": "pickRandomThirdWord",
      "outputs": [
        {
          "internalType": "string",
          "name": "",
          "type": "string"
        }
      ],
      "stateMutability": "view",
      "type": "function"
    },
    {
      "inputs": [
        {
          "internalType": "address",
          "name": "from",
          "type": "address"
        },
        {
          "internalType": "address",
          "name": "to",
          "type": "address"
        },
        {
          "internalType": "uint256",
          "name": "tokenId",
          "type": "uint256"
        }
      ],
      "name": "safeTransferFrom",
      "outputs": [],
      "stateMutability": "nonpayable",
      "type": "function"
    },
    {
      "inputs": [
        {
          "internalType": "address",
          "name": "from",
          "type": "address"
        },
        {
          "internalType": "address",
          "name": "to",
          "type": "address"
        },
        {
          "internalType": "uint256",
          "name": "tokenId",
          "type": "uint256"
        },
        {
          "internalType": "bytes",
          "name": "data",
          "type": "bytes"
        }
      ],
      "name": "safeTransferFrom",
      "outputs": [],
      "stateMutability": "nonpayable",
      "type": "function"
    },
    {
      "inputs": [
        {
          "internalType": "address",
          "name": "operator",
          "type": "address"
        },
        {
          "internalType": "bool",
          "name": "approved",
          "type": "bool"
        }
      ],
      "name": "setApprovalForAll",
      "outputs": [],
      "stateMutability": "nonpayable",
      "type": "function"
    },
    {
      "inputs": [
        {
          "internalType": "bytes4",
          "name": "interfaceId",
          "type": "bytes4"
        }
      ],
      "name": "supportsInterface",
      "outputs": [
        {
          "internalType": "bool",
          "name": "",
          "type": "bool"
        }
      ],
      "stateMutability": "view",
      "type": "function"
    },
    {
      "inputs": [],
      "name": "symbol",
      "outputs": [
        {
          "internalType": "string",
          "name": "",
          "type": "string"
        }
      ],
      "stateMutability": "view",
      "type": "function"
    },
    {
      "inputs": [
        {
          "internalType": "uint256",
          "name": "tokenId",
          "type": "uint256"
        }
      ],
      "name": "tokenURI",
      "outputs": [
        {
          "internalType": "string",
          "name": "",
          "type": "string"
        }
      ],
      "stateMutability": "view",
      "type": "function"
    },
    {
      "inputs": [
        {
          "internalType": "address",
          "name": "from",
          "type": "address"
        },
        {
          "internalType": "address",
          "name": "to",
          "type": "address"
        },
        {
          "internalType": "uint256",
          "name": "tokenId",
          "type": "uint256"
        }
      ],
      "name": "transferFrom",
      "outputs": [],
      "stateMutability": "nonpayable",
      "type": "function"
    }
  ],
  "bytecode": "0x60806040526040518060a0016040528060638152602001620059c660639139600890816200002e919062001ee4565b5060405180606001604052806039815260200162005a29603991396009908162000059919062001ee4565b5060405180606001604052806025815260200162005a6260259139600a908162000084919062001ee4565b506040518061048001604052806040518060400160405280600781526020017f233030303030300000000000000000000000000000000000000000000000000081525081526020016040518060400160405280600781526020017f233333303030300000000000000000000000000000000000000000000000000081525081526020016040518060400160405280600781526020017f233636303030300000000000000000000000000000000000000000000000000081525081526020016040518060400160405280600781526020017f233939303030300000000000000000000000000000000000000000000000000081525081526020016040518060400160405280600781526020017f234343303030300000000000000000000000000000000000000000000000000081525081526020016040518060400160405280600781526020017f234646303030300000000000000000000000000000000000000000000000000081525081526020016040518060400160405280600781526020017f233030333330300000000000000000000000000000000000000000000000000081525081526020016040518060400160405280600781526020017f233333333330300000000000000000000000000000000000000000000000000081525081526020016040518060400160405280600781526020017f233636333330300000000000000000000000000000000000000000000000000081525081526020016040518060400160405280600781526020017f233939333330300000000000000000000000000000000000000000000000000081525081526020016040518060400160405280600781526020017f234343333330300000000000000000000000000000000000000000000000000081525081526020016040518060400160405280600781526020017f234646333330300000000000000000000000000000000000000000000000000081525081526020016040518060400160405280600781526020017f233030363630300000000000000000000000000000000000000000000000000081525081526020016040518060400160405280600781526020017f233333363630300000000000000000000000000000000000000000000000000081525081526020016040518060400160405280600781526020017f233636363630300000000000000000000000000000000000000000000000000081525081526020016040518060400160405280600781526020017f233939363630300000000000000000000000000000000000000000000000000081525081526020016040518060400160405280600781526020017f234343363630300000000000000000000000000000000000000000000000000081525081526020016040518060400160405280600781526020017f234646363630300000000000000000000000000000000000000000000000000081525081526020016040518060400160405280600781526020017f233030393930300000000000000000000000000000000000000000000000000081525081526020016040518060400160405280600781526020017f233333393930300000000000000000000000000000000000000000000000000081525081526020016040518060400160405280600781526020017f233636393930300000000000000000000000000000000000000000000000000081525081526020016040518060400160405280600781526020017f233939393930300000000000000000000000000000000000000000000000000081525081526020016040518060400160405280600781526020017f234343393930300000000000000000000000000000000000000000000000000081525081526020016040518060400160405280600781526020017f234646393930300000000000000000000000000000000000000000000000000081525081526020016040518060400160405280600781526020017f233030434330300000000000000000000000000000000000000000000000000081525081526020016040518060400160405280600781526020017f233333434330300000000000000000000000000000000000000000000000000081525081526020016040518060400160405280600781526020017f233636434330300000000000000000000000000000000000000000000000000081525081526020016040518060400160405280600781526020017f233939434330300000000000000000000000000000000000000000000000000081525081526020016040518060400160405280600781526020017f234343434330300000000000000000000000000000000000000000000000000081525081526020016040518060400160405280600781526020017f234646434330300000000000000000000000000000000000000000000000000081525081526020016040518060400160405280600781526020017f233030464630300000000000000000000000000000000000000000000000000081525081526020016040518060400160405280600781526020017f233333464630300000000000000000000000000000000000000000000000000081525081526020016040518060400160405280600781526020017f233636464630300000000000000000000000000000000000000000000000000081525081526020016040518060400160405280600781526020017f233939464630300000000000000000000000000000000000000000000000000081525081526020016040518060400160405280600781526020017f234343464630300000000000000000000000000000000000000000000000000081525081526020016040518060400160405280600681526020017f2346464646300000000000000000000000000000000000000000000000000000815250815250600b906024620008ed92919062001b7d565b506040518061048001604052806040518060400160405280600781526020017f233030303030300000000000000000000000000000000000000000000000000081525081526020016040518060400160405280600781526020017f233333303030300000000000000000000000000000000000000000000000000081525081526020016040518060400160405280600781526020017f233636303030300000000000000000000000000000000000000000000000000081525081526020016040518060400160405280600781526020017f233939303030300000000000000000000000000000000000000000000000000081525081526020016040518060400160405280600781526020017f234343303030300000000000000000000000000000000000000000000000000081525081526020016040518060400160405280600781526020017f234646303030300000000000000000000000000000000000000000000000000081525081526020016040518060400160405280600781526020017f233030333330300000000000000000000000000000000000000000000000000081525081526020016040518060400160405280600781526020017f233333333330300000000000000000000000000000000000000000000000000081525081526020016040518060400160405280600781526020017f233636333330300000000000000000000000000000000000000000000000000081525081526020016040518060400160405280600781526020017f233939333330300000000000000000000000000000000000000000000000000081525081526020016040518060400160405280600781526020017f234343333330300000000000000000000000000000000000000000000000000081525081526020016040518060400160405280600781526020017f234646333330300000000000000000000000000000000000000000000000000081525081526020016040518060400160405280600781526020017f233030363630300000000000000000000000000000000000000000000000000081525081526020016040518060400160405280600781526020017f233333363630300000000000000000000000000000000000000000000000000081525081526020016040518060400160405280600781526020017f233636363630300000000000000000000000000000000000000000000000000081525081526020016040518060400160405280600781526020017f233939363630300000000000000000000000000000000000000000000000000081525081526020016040518060400160405280600781526020017f234343363630300000000000000000000000000000000000000000000000000081525081526020016040518060400160405280600781526020017f234646363630300000000000000000000000000000000000000000000000000081525081526020016040518060400160405280600781526020017f233030393930300000000000000000000000000000000000000000000000000081525081526020016040518060400160405280600781526020017f233333393930300000000000000000000000000000000000000000000000000081525081526020016040518060400160405280600781526020017f233636393930300000000000000000000000000000000000000000000000000081525081526020016040518060400160405280600781526020017f233939393930300000000000000000000000000000000000000000000000000081525081526020016040518060400160405280600781526020017f234343393930300000000000000000000000000000000000000000000000000081525081526020016040518060400160405280600781526020017f234646393930300000000000000000000000000000000000000000000000000081525081526020016040518060400160405280600781526020017f233030434330300000000000000000000000000000000000000000000000000081525081526020016040518060400160405280600781526020017f233333434330300000000000000000000000000000000000000000000000000081525081526020016040518060400160405280600781526020017f233636434330300000000000000000000000000000000000000000000000000081525081526020016040518060400160405280600781526020017f233939434330300000000000000000000000000000000000000000000000000081525081526020016040518060400160405280600781526020017f234343434330300000000000000000000000000000000000000000000000000081525081526020016040518060400160405280600781526020017f234646434330300000000000000000000000000000000000000000000000000081525081526020016040518060400160405280600781526020017f233030464630300000000000000000000000000000000000000000000000000081525081526020016040518060400160405280600781526020017f233333464630300000000000000000000000000000000000000000000000000081525081526020016040518060400160405280600781526020017f233636464630300000000000000000000000000000000000000000000000000081525081526020016040518060400160405280600781526020017f233939464630300000000000000000000000000000000000000000000000000081525081526020016040518060400160405280600781526020017f234343464630300000000000000000000000000000000000000000000000000081525081526020016040518060400160405280600681526020017f2346464646300000000000000000000000000000000000000000000000000000815250815250600c9060246200115692919062001b7d565b506040518061048001604052806040518060400160405280600781526020017f233030303030300000000000000000000000000000000000000000000000000081525081526020016040518060400160405280600781526020017f233333303030300000000000000000000000000000000000000000000000000081525081526020016040518060400160405280600781526020017f233636303030300000000000000000000000000000000000000000000000000081525081526020016040518060400160405280600781526020017f233939303030300000000000000000000000000000000000000000000000000081525081526020016040518060400160405280600781526020017f234343303030300000000000000000000000000000000000000000000000000081525081526020016040518060400160405280600781526020017f234646303030300000000000000000000000000000000000000000000000000081525081526020016040518060400160405280600781526020017f233030333330300000000000000000000000000000000000000000000000000081525081526020016040518060400160405280600781526020017f233333333330300000000000000000000000000000000000000000000000000081525081526020016040518060400160405280600781526020017f233636333330300000000000000000000000000000000000000000000000000081525081526020016040518060400160405280600781526020017f233939333330300000000000000000000000000000000000000000000000000081525081526020016040518060400160405280600781526020017f234343333330300000000000000000000000000000000000000000000000000081525081526020016040518060400160405280600781526020017f234646333330300000000000000000000000000000000000000000000000000081525081526020016040518060400160405280600781526020017f233030363630300000000000000000000000000000000000000000000000000081525081526020016040518060400160405280600781526020017f233333363630300000000000000000000000000000000000000000000000000081525081526020016040518060400160405280600781526020017f233636363630300000000000000000000000000000000000000000000000000081525081526020016040518060400160405280600781526020017f233939363630300000000000000000000000000000000000000000000000000081525081526020016040518060400160405280600781526020017f234343363630300000000000000000000000000000000000000000000000000081525081526020016040518060400160405280600781526020017f234646363630300000000000000000000000000000000000000000000000000081525081526020016040518060400160405280600781526020017f233030393930300000000000000000000000000000000000000000000000000081525081526020016040518060400160405280600781526020017f233333393930300000000000000000000000000000000000000000000000000081525081526020016040518060400160405280600781526020017f233636393930300000000000000000000000000000000000000000000000000081525081526020016040518060400160405280600781526020017f233939393930300000000000000000000000000000000000000000000000000081525081526020016040518060400160405280600781526020017f234343393930300000000000000000000000000000000000000000000000000081525081526020016040518060400160405280600781526020017f234646393930300000000000000000000000000000000000000000000000000081525081526020016040518060400160405280600781526020017f233030434330300000000000000000000000000000000000000000000000000081525081526020016040518060400160405280600781526020017f233333434330300000000000000000000000000000000000000000000000000081525081526020016040518060400160405280600781526020017f233636434330300000000000000000000000000000000000000000000000000081525081526020016040518060400160405280600781526020017f233939434330300000000000000000000000000000000000000000000000000081525081526020016040518060400160405280600781526020017f234343434330300000000000000000000000000000000000000000000000000081525081526020016040518060400160405280600781526020017f234646434330300000000000000000000000000000000000000000000000000081525081526020016040518060400160405280600781526020017f233030464630300000000000000000000000000000000000000000000000000081525081526020016040518060400160405280600781526020017f233333464630300000000000000000000000000000000000000000000000000081525081526020016040518060400160405280600781526020017f233636464630300000000000000000000000000000000000000000000000000081525081526020016040518060400160405280600781526020017f233939464630300000000000000000000000000000000000000000000000000081525081526020016040518060400160405280600781526020017f234343464630300000000000000000000000000000000000000000000000000081525081526020016040518060400160405280600681526020017f2346464646300000000000000000000000000000000000000000000000000000815250815250600d906024620019bf92919062001b7d565b50348015620019cd57600080fd5b506040518060400160405280600781526020017f666c61674e4654000000000000000000000000000000000000000000000000008152506040518060400160405280600481526020017f464c414700000000000000000000000000000000000000000000000000000000815250816000908162001a4b919062001ee4565b50806001908162001a5d919062001ee4565b50505062001aab6040518060400160405280601781526020017f546869732069732061204e465420636f6e74726163742e00000000000000000081525062001ab160201b62000eeb1760201c565b6200207e565b62001b518160405160240162001ac891906200205a565b6040516020818303038152906040527f41304fac000000000000000000000000000000000000000000000000000000007bffffffffffffffffffffffffffffffffffffffffffffffffffffffff19166020820180517bffffffffffffffffffffffffffffffffffffffffffffffffffffffff838183161783525050505062001b5460201b60201c565b50565b60008151905060006a636f6e736f6c652e6c6f679050602083016000808483855afa5050505050565b82805482825590600052602060002090810192821562001bca579160200282015b8281111562001bc957825182908162001bb8919062001ee4565b509160200191906001019062001b9e565b5b50905062001bd9919062001bdd565b5090565b5b8082111562001c01576000818162001bf7919062001c05565b5060010162001bde565b5090565b50805462001c139062001cd3565b6000825580601f1062001c27575062001c48565b601f01602090049060005260206000209081019062001c47919062001c4b565b5b50565b5b8082111562001c6657600081600090555060010162001c4c565b5090565b600081519050919050565b7f4e487b7100000000000000000000000000000000000000000000000000000000600052604160045260246000fd5b7f4e487b7100000000000000000000000000000000000000000000000000000000600052602260045260246000fd5b6000600282049050600182168062001cec57607f821691505b60208210810362001d025762001d0162001ca4565b5b50919050565b60008190508160005260206000209050919050565b60006020601f8301049050919050565b600082821b905092915050565b60006008830262001d6c7fffffffffffffffffffffffffffffffffffffffffffffffffffffffffffffffff8262001d2d565b62001d78868362001d2d565b95508019841693508086168417925050509392505050565b6000819050919050565b6000819050919050565b600062001dc562001dbf62001db98462001d90565b62001d9a565b62001d90565b9050919050565b6000819050919050565b62001de18362001da4565b62001df962001df08262001dcc565b84845462001d3a565b825550505050565b600090565b62001e1062001e01565b62001e1d81848462001dd6565b505050565b5b8181101562001e455762001e3960008262001e06565b60018101905062001e23565b5050565b601f82111562001e945762001e5e8162001d08565b62001e698462001d1d565b8101602085101562001e79578190505b62001e9162001e888562001d1d565b83018262001e22565b50505b505050565b600082821c905092915050565b600062001eb96000198460080262001e99565b1980831691505092915050565b600062001ed4838362001ea6565b9150826002028217905092915050565b62001eef8262001c6a565b67ffffffffffffffff81111562001f0b5762001f0a62001c75565b5b62001f17825462001cd3565b62001f2482828562001e49565b600060209050601f83116001811462001f5c576000841562001f47578287015190505b62001f53858262001ec6565b86555062001fc3565b601f19841662001f6c8662001d08565b60005b8281101562001f965784890151825560018201915060208501945060208101905062001f6f565b8683101562001fb6578489015162001fb2601f89168262001ea6565b8355505b6001600288020188555050505b505050505050565b600082825260208201905092915050565b60005b8381101562001ffc57808201518184015260208101905062001fdf565b60008484015250505050565b6000601f19601f8301169050919050565b6000620020268262001c6a565b62002032818562001fcb565b93506200204481856020860162001fdc565b6200204f8162002008565b840191505092915050565b6000602082019050818103600083015262002076818462002019565b905092915050565b613938806200208e6000396000f3fe608060405234801561001057600080fd5b506004361061010b5760003560e01c806370a08231116100a2578063b187301f11610071578063b187301f146102b6578063b88d4fde146102e6578063c575757a14610302578063c87b56dd14610332578063e985e9c5146103625761010b565b806370a08231146102425780638a97ec2a1461027257806395d89b411461027c578063a22cb4651461029a5761010b565b806323b872dd116100de57806323b872dd146101aa5780632de38d68146101c657806342842e0e146101f65780636352211e146102125761010b565b806301ffc9a71461011057806306fdde0314610140578063081812fc1461015e578063095ea7b31461018e575b600080fd5b61012a6004803603810190610125919061224a565b610392565b6040516101379190612292565b60405180910390f35b610148610474565b604051610155919061233d565b60405180910390f35b61017860048036038101906101739190612395565b610506565b6040516101859190612403565b60405180910390f35b6101a860048036038101906101a3919061244a565b61054c565b005b6101c460048036038101906101bf919061248a565b610663565b005b6101e060048036038101906101db9190612395565b6106c3565b6040516101ed919061233d565b60405180910390f35b610210600480360381019061020b919061248a565b6107bb565b005b61022c60048036038101906102279190612395565b6107db565b6040516102399190612403565b60405180910390f35b61025c600480360381019061025791906124dd565b610861565b6040516102699190612519565b60405180910390f35b61027a610918565b005b610284610a4b565b604051610291919061233d565b60405180910390f35b6102b460048036038101906102af9190612560565b610add565b005b6102d060048036038101906102cb9190612395565b610af3565b6040516102dd919061233d565b60405180910390f35b61030060048036038101906102fb91906126d5565b610beb565b005b61031c60048036038101906103179190612395565b610c4d565b604051610329919061233d565b60405180910390f35b61034c60048036038101906103479190612395565b610d45565b604051610359919061233d565b60405180910390f35b61037c60048036038101906103779190612758565b610e57565b6040516103899190612292565b60405180910390f35b60007f80ac58cd000000000000000000000000000000000000000000000000000000007bffffffffffffffffffffffffffffffffffffffffffffffffffffffff1916827bffffffffffffffffffffffffffffffffffffffffffffffffffffffff1916148061045d57507f5b5e139f000000000000000000000000000000000000000000000000000000007bffffffffffffffffffffffffffffffffffffffffffffffffffffffff1916827bffffffffffffffffffffffffffffffffffffffffffffffffffffffff1916145b8061046d575061046c82610f84565b5b9050919050565b606060008054610483906127c7565b80601f01602080910402602001604051908101604052809291908181526020018280546104af906127c7565b80156104fc5780601f106104d1576101008083540402835291602001916104fc565b820191906000526020600020905b8154815290600101906020018083116104df57829003601f168201915b5050505050905090565b600061051182610fee565b6004600083815260200190815260200160002060009054906101000a900473ffffffffffffffffffffffffffffffffffffffff169050919050565b6000610557826107db565b90508073ffffffffffffffffffffffffffffffffffffffff168373ffffffffffffffffffffffffffffffffffffffff16036105c7576040517f08c379a00000000000000000000000000000000000000000000000000000000081526004016105be9061286a565b60405180910390fd5b8073ffffffffffffffffffffffffffffffffffffffff166105e6611039565b73ffffffffffffffffffffffffffffffffffffffff16148061061557506106148161060f611039565b610e57565b5b610654576040517f08c379a000000000000000000000000000000000000000000000000000000000815260040161064b906128fc565b60405180910390fd5b61065e8383611041565b505050565b61067461066e611039565b826110fa565b6106b3576040517f08c379a00000000000000000000000000000000000000000000000000000000081526004016106aa9061298e565b60405180910390fd5b6106be83838361118f565b505050565b606060006106f76106d384611488565b6040516020016106e39190612a36565b604051602081830303815290604052611556565b9050600b805490508161070a9190612a87565b9050600b81815481106107205761071f612ab8565b5b906000526020600020018054610735906127c7565b80601f0160208091040260200160405190810160405280929190818152602001828054610761906127c7565b80156107ae5780601f10610783576101008083540402835291602001916107ae565b820191906000526020600020905b81548152906001019060200180831161079157829003601f168201915b5050505050915050919050565b6107d683838360405180602001604052806000815250610beb565b505050565b6000806107e783611589565b9050600073ffffffffffffffffffffffffffffffffffffffff168173ffffffffffffffffffffffffffffffffffffffff1603610858576040517f08c379a000000000000000000000000000000000000000000000000000000000815260040161084f90612b33565b60405180910390fd5b80915050919050565b60008073ffffffffffffffffffffffffffffffffffffffff168273ffffffffffffffffffffffffffffffffffffffff16036108d1576040517f08c379a00000000000000000000000000000000000000000000000000000000081526004016108c890612bc5565b60405180910390fd5b600360008373ffffffffffffffffffffffffffffffffffffffff1673ffffffffffffffffffffffffffffffffffffffff168152602001908152602001600020549050919050565b600061092460076115c6565b90506000610931826106c3565b9050600061093e83610af3565b9050600061094b84610c4d565b9050600083838360405160200161096493929190612be5565b60405160208183030381529060405290506000600885600986600a8760405160200161099596959493929190612cfa565b604051602081830303815290604052905060006109da836109b5846115d4565b6040516020016109c6929190612eb3565b6040516020818303038152906040526115d4565b90506000816040516020016109ef9190612f44565b6040516020818303038152906040529050610a0a338961174c565b610a14888261176a565b610a1e60076117d7565b610a4160405180606001604052806025815260200161389e6025913989336117ed565b5050505050505050565b606060018054610a5a906127c7565b80601f0160208091040260200160405190810160405280929190818152602001828054610a86906127c7565b8015610ad35780601f10610aa857610100808354040283529160200191610ad3565b820191906000526020600020905b815481529060010190602001808311610ab657829003601f168201915b5050505050905090565b610aef610ae8611039565b838361188c565b5050565b60606000610b27610b0384611488565b604051602001610b139190612fb2565b604051602081830303815290604052611556565b9050600c8054905081610b3a9190612a87565b9050600c8181548110610b5057610b4f612ab8565b5b906000526020600020018054610b65906127c7565b80601f0160208091040260200160405190810160405280929190818152602001828054610b91906127c7565b8015610bde5780601f10610bb357610100808354040283529160200191610bde565b820191906000526020600020905b815481529060010190602001808311610bc157829003601f168201915b5050505050915050919050565b610bfc610bf6611039565b836110fa565b610c3b576040517f08c379a0000000000000000000000000000000000000000000000000000000008152600401610c329061298e565b60405180910390fd5b610c47848484846119f8565b50505050565b60606000610c81610c5d84611488565b604051602001610c6d9190613020565b604051602081830303815290604052611556565b9050600d8054905081610c949190612a87565b9050600d8181548110610caa57610ca9612ab8565b5b906000526020600020018054610cbf906127c7565b80601f0160208091040260200160405190810160405280929190818152602001828054610ceb906127c7565b8015610d385780601f10610d0d57610100808354040283529160200191610d38565b820191906000526020600020905b815481529060010190602001808311610d1b57829003601f168201915b5050505050915050919050565b6060610d5082610fee565b6000600660008481526020019081526020016000208054610d70906127c7565b80601f0160208091040260200160405190810160405280929190818152602001828054610d9c906127c7565b8015610de95780601f10610dbe57610100808354040283529160200191610de9565b820191906000526020600020905b815481529060010190602001808311610dcc57829003601f168201915b505050505090506000610dfa611a54565b90506000815103610e0f578192505050610e52565b600082511115610e44578082604051602001610e2c929190613042565b60405160208183030381529060405292505050610e52565b610e4d84611a6b565b925050505b919050565b6000600560008473ffffffffffffffffffffffffffffffffffffffff1673ffffffffffffffffffffffffffffffffffffffff16815260200190815260200160002060008373ffffffffffffffffffffffffffffffffffffffff1673ffffffffffffffffffffffffffffffffffffffff16815260200190815260200160002060009054906101000a900460ff16905092915050565b610f8181604051602401610eff919061233d565b6040516020818303038152906040527f41304fac000000000000000000000000000000000000000000000000000000007bffffffffffffffffffffffffffffffffffffffffffffffffffffffff19166020820180517bffffffffffffffffffffffffffffffffffffffffffffffffffffffff8381831617835250505050611ad3565b50565b60007f01ffc9a7000000000000000000000000000000000000000000000000000000007bffffffffffffffffffffffffffffffffffffffffffffffffffffffff1916827bffffffffffffffffffffffffffffffffffffffffffffffffffffffff1916149050919050565b610ff781611afc565b611036576040517f08c379a000000000000000000000000000000000000000000000000000000000815260040161102d90612b33565b60405180910390fd5b50565b600033905090565b816004600083815260200190815260200160002060006101000a81548173ffffffffffffffffffffffffffffffffffffffff021916908373ffffffffffffffffffffffffffffffffffffffff160217905550808273ffffffffffffffffffffffffffffffffffffffff166110b4836107db565b73ffffffffffffffffffffffffffffffffffffffff167f8c5be1e5ebec7d5bd14f71427d1e84f3dd0314c0f7b2291e5b200ac8c7c3b92560405160405180910390a45050565b600080611106836107db565b90508073ffffffffffffffffffffffffffffffffffffffff168473ffffffffffffffffffffffffffffffffffffffff16148061114857506111478185610e57565b5b8061118657508373ffffffffffffffffffffffffffffffffffffffff1661116e84610506565b73ffffffffffffffffffffffffffffffffffffffff16145b91505092915050565b8273ffffffffffffffffffffffffffffffffffffffff166111af826107db565b73ffffffffffffffffffffffffffffffffffffffff1614611205576040517f08c379a00000000000000000000000000000000000000000000000000000000081526004016111fc906130d8565b60405180910390fd5b600073ffffffffffffffffffffffffffffffffffffffff168273ffffffffffffffffffffffffffffffffffffffff1603611274576040517f08c379a000000000000000000000000000000000000000000000000000000000815260040161126b9061316a565b60405180910390fd5b6112818383836001611b3d565b8273ffffffffffffffffffffffffffffffffffffffff166112a1826107db565b73ffffffffffffffffffffffffffffffffffffffff16146112f7576040517f08c379a00000000000000000000000000000000000000000000000000000000081526004016112ee906130d8565b60405180910390fd5b6004600082815260200190815260200160002060006101000a81549073ffffffffffffffffffffffffffffffffffffffff02191690556001600360008573ffffffffffffffffffffffffffffffffffffffff1673ffffffffffffffffffffffffffffffffffffffff168152602001908152602001600020600082825403925050819055506001600360008473ffffffffffffffffffffffffffffffffffffffff1673ffffffffffffffffffffffffffffffffffffffff16815260200190815260200160002060008282540192505081905550816002600083815260200190815260200160002060006101000a81548173ffffffffffffffffffffffffffffffffffffffff021916908373ffffffffffffffffffffffffffffffffffffffff160217905550808273ffffffffffffffffffffffffffffffffffffffff168473ffffffffffffffffffffffffffffffffffffffff167fddf252ad1be2c89b69c2b068fc378daa952ba7f163c4a11628f55a4df523b3ef60405160405180910390a46114838383836001611c63565b505050565b60606000600161149784611c69565b01905060008167ffffffffffffffff8111156114b6576114b56125aa565b5b6040519080825280601f01601f1916602001820160405280156114e85781602001600182028036833780820191505090505b509050600082602001820190505b60011561154b578080600190039150507f3031323334353637383961626364656600000000000000000000000000000000600a86061a8153600a858161153f5761153e612a58565b5b049450600085036114f6575b819350505050919050565b600081604051602001611569919061318a565b6040516020818303038152906040528051906020012060001c9050919050565b60006002600083815260200190815260200160002060009054906101000a900473ffffffffffffffffffffffffffffffffffffffff169050919050565b600081600001549050919050565b606060008251036115f657604051806020016040528060008152509050611747565b60006040518060600160405280604081526020016138c3604091399050600060036002855161162591906131d0565b61162f9190613204565b600461163b9190613235565b9050600060208261164c91906131d0565b67ffffffffffffffff811115611665576116646125aa565b5b6040519080825280601f01601f1916602001820160405280156116975781602001600182028036833780820191505090505b509050818152600183018586518101602084015b81831015611706576003830192508251603f8160121c168501518253600182019150603f81600c1c168501518253600182019150603f8160061c168501518253600182019150603f81168501518253600182019150506116ab565b60038951066001811461172057600281146117305761173b565b613d3d60f01b600283035261173b565b603d60f81b60018303525b50505050508093505050505b919050565b611766828260405180602001604052806000815250611dbc565b5050565b61177382611afc565b6117b2576040517f08c379a00000000000000000000000000000000000000000000000000000000081526004016117a9906132e9565b60405180910390fd5b806006600084815260200190815260200160002090816117d291906134a0565b505050565b6001816000016000828254019250508190555050565b61188783838360405160240161180593929190613572565b6040516020818303038152906040527f1c7ec448000000000000000000000000000000000000000000000000000000007bffffffffffffffffffffffffffffffffffffffffffffffffffffffff19166020820180517bffffffffffffffffffffffffffffffffffffffffffffffffffffffff8381831617835250505050611ad3565b505050565b8173ffffffffffffffffffffffffffffffffffffffff168373ffffffffffffffffffffffffffffffffffffffff16036118fa576040517f08c379a00000000000000000000000000000000000000000000000000000000081526004016118f1906135fc565b60405180910390fd5b80600560008573ffffffffffffffffffffffffffffffffffffffff1673ffffffffffffffffffffffffffffffffffffffff16815260200190815260200160002060008473ffffffffffffffffffffffffffffffffffffffff1673ffffffffffffffffffffffffffffffffffffffff16815260200190815260200160002060006101000a81548160ff0219169083151502179055508173ffffffffffffffffffffffffffffffffffffffff168373ffffffffffffffffffffffffffffffffffffffff167f17307eab39ab6107e8899845ad3d59bd9653f200f220920489ca2b5937696c31836040516119eb9190612292565b60405180910390a3505050565b611a0384848461118f565b611a0f84848484611e17565b611a4e576040517f08c379a0000000000000000000000000000000000000000000000000000000008152600401611a459061368e565b60405180910390fd5b50505050565b606060405180602001604052806000815250905090565b6060611a7682610fee565b6000611a80611a54565b90506000815111611aa05760405180602001604052806000815250611acb565b80611aaa84611488565b604051602001611abb929190613042565b6040516020818303038152906040525b915050919050565b60008151905060006a636f6e736f6c652e6c6f679050602083016000808483855afa5050505050565b60008073ffffffffffffffffffffffffffffffffffffffff16611b1e83611589565b73ffffffffffffffffffffffffffffffffffffffff1614159050919050565b6001811115611c5d57600073ffffffffffffffffffffffffffffffffffffffff168473ffffffffffffffffffffffffffffffffffffffff1614611bd15780600360008673ffffffffffffffffffffffffffffffffffffffff1673ffffffffffffffffffffffffffffffffffffffff1681526020019081526020016000206000828254611bc991906136ae565b925050819055505b600073ffffffffffffffffffffffffffffffffffffffff168373ffffffffffffffffffffffffffffffffffffffff1614611c5c5780600360008573ffffffffffffffffffffffffffffffffffffffff1673ffffffffffffffffffffffffffffffffffffffff1681526020019081526020016000206000828254611c5491906131d0565b925050819055505b5b50505050565b50505050565b600080600090507a184f03e93ff9f4daa797ed6e38ed64bf6a1f0100000000000000008310611cc7577a184f03e93ff9f4daa797ed6e38ed64bf6a1f0100000000000000008381611cbd57611cbc612a58565b5b0492506040810190505b6d04ee2d6d415b85acef81000000008310611d04576d04ee2d6d415b85acef81000000008381611cfa57611cf9612a58565b5b0492506020810190505b662386f26fc100008310611d3357662386f26fc100008381611d2957611d28612a58565b5b0492506010810190505b6305f5e1008310611d5c576305f5e1008381611d5257611d51612a58565b5b0492506008810190505b6127108310611d81576127108381611d7757611d76612a58565b5b0492506004810190505b60648310611da45760648381611d9a57611d99612a58565b5b0492506002810190505b600a8310611db3576001810190505b80915050919050565b611dc68383611f9e565b611dd36000848484611e17565b611e12576040517f08c379a0000000000000000000000000000000000000000000000000000000008152600401611e099061368e565b60405180910390fd5b505050565b6000611e388473ffffffffffffffffffffffffffffffffffffffff166121bb565b15611f91578373ffffffffffffffffffffffffffffffffffffffff1663150b7a02611e61611039565b8786866040518563ffffffff1660e01b8152600401611e839493929190613737565b6020604051808303816000875af1925050508015611ebf57506040513d601f19601f82011682018060405250810190611ebc9190613798565b60015b611f41573d8060008114611eef576040519150601f19603f3d011682016040523d82523d6000602084013e611ef4565b606091505b506000815103611f39576040517f08c379a0000000000000000000000000000000000000000000000000000000008152600401611f309061368e565b60405180910390fd5b805181602001fd5b63150b7a0260e01b7bffffffffffffffffffffffffffffffffffffffffffffffffffffffff1916817bffffffffffffffffffffffffffffffffffffffffffffffffffffffff191614915050611f96565b600190505b949350505050565b600073ffffffffffffffffffffffffffffffffffffffff168273ffffffffffffffffffffffffffffffffffffffff160361200d576040517f08c379a000000000000000000000000000000000000000000000000000000000815260040161200490613811565b60405180910390fd5b61201681611afc565b15612056576040517f08c379a000000000000000000000000000000000000000000000000000000000815260040161204d9061387d565b60405180910390fd5b612064600083836001611b3d565b61206d81611afc565b156120ad576040517f08c379a00000000000000000000000000000000000000000000000000000000081526004016120a49061387d565b60405180910390fd5b6001600360008473ffffffffffffffffffffffffffffffffffffffff1673ffffffffffffffffffffffffffffffffffffffff16815260200190815260200160002060008282540192505081905550816002600083815260200190815260200160002060006101000a81548173ffffffffffffffffffffffffffffffffffffffff021916908373ffffffffffffffffffffffffffffffffffffffff160217905550808273ffffffffffffffffffffffffffffffffffffffff16600073ffffffffffffffffffffffffffffffffffffffff167fddf252ad1be2c89b69c2b068fc378daa952ba7f163c4a11628f55a4df523b3ef60405160405180910390a46121b7600083836001611c63565b5050565b6000808273ffffffffffffffffffffffffffffffffffffffff163b119050919050565b6000604051905090565b600080fd5b600080fd5b60007fffffffff0000000000000000000000000000000000000000000000000000000082169050919050565b612227816121f2565b811461223257600080fd5b50565b6000813590506122448161221e565b92915050565b6000602082840312156122605761225f6121e8565b5b600061226e84828501612235565b91505092915050565b60008115159050919050565b61228c81612277565b82525050565b60006020820190506122a76000830184612283565b92915050565b600081519050919050565b600082825260208201905092915050565b60005b838110156122e75780820151818401526020810190506122cc565b60008484015250505050565b6000601f19601f8301169050919050565b600061230f826122ad565b61231981856122b8565b93506123298185602086016122c9565b612332816122f3565b840191505092915050565b600060208201905081810360008301526123578184612304565b905092915050565b6000819050919050565b6123728161235f565b811461237d57600080fd5b50565b60008135905061238f81612369565b92915050565b6000602082840312156123ab576123aa6121e8565b5b60006123b984828501612380565b91505092915050565b600073ffffffffffffffffffffffffffffffffffffffff82169050919050565b60006123ed826123c2565b9050919050565b6123fd816123e2565b82525050565b600060208201905061241860008301846123f4565b92915050565b612427816123e2565b811461243257600080fd5b50565b6000813590506124448161241e565b92915050565b60008060408385031215612461576124606121e8565b5b600061246f85828601612435565b925050602061248085828601612380565b9150509250929050565b6000806000606084860312156124a3576124a26121e8565b5b60006124b186828701612435565b93505060206124c286828701612435565b92505060406124d386828701612380565b9150509250925092565b6000602082840312156124f3576124f26121e8565b5b600061250184828501612435565b91505092915050565b6125138161235f565b82525050565b600060208201905061252e600083018461250a565b92915050565b61253d81612277565b811461254857600080fd5b50565b60008135905061255a81612534565b92915050565b60008060408385031215612577576125766121e8565b5b600061258585828601612435565b92505060206125968582860161254b565b9150509250929050565b600080fd5b600080fd5b7f4e487b7100000000000000000000000000000000000000000000000000000000600052604160045260246000fd5b6125e2826122f3565b810181811067ffffffffffffffff82111715612601576126006125aa565b5b80604052505050565b60006126146121de565b905061262082826125d9565b919050565b600067ffffffffffffffff8211156126405761263f6125aa565b5b612649826122f3565b9050602081019050919050565b82818337600083830152505050565b600061267861267384612625565b61260a565b905082815260208101848484011115612694576126936125a5565b5b61269f848285612656565b509392505050565b600082601f8301126126bc576126bb6125a0565b5b81356126cc848260208601612665565b91505092915050565b600080600080608085870312156126ef576126ee6121e8565b5b60006126fd87828801612435565b945050602061270e87828801612435565b935050604061271f87828801612380565b925050606085013567ffffffffffffffff8111156127405761273f6121ed565b5b61274c878288016126a7565b91505092959194509250565b6000806040838503121561276f5761276e6121e8565b5b600061277d85828601612435565b925050602061278e85828601612435565b9150509250929050565b7f4e487b7100000000000000000000000000000000000000000000000000000000600052602260045260246000fd5b600060028204905060018216806127df57607f821691505b6020821081036127f2576127f1612798565b5b50919050565b7f4552433732313a20617070726f76616c20746f2063757272656e74206f776e6560008201527f7200000000000000000000000000000000000000000000000000000000000000602082015250565b60006128546021836122b8565b915061285f826127f8565b604082019050919050565b6000602082019050818103600083015261288381612847565b9050919050565b7f4552433732313a20617070726f76652063616c6c6572206973206e6f7420746f60008201527f6b656e206f776e6572206f7220617070726f76656420666f7220616c6c000000602082015250565b60006128e6603d836122b8565b91506128f18261288a565b604082019050919050565b60006020820190508181036000830152612915816128d9565b9050919050565b7f4552433732313a2063616c6c6572206973206e6f7420746f6b656e206f776e6560008201527f72206f7220617070726f76656400000000000000000000000000000000000000602082015250565b6000612978602d836122b8565b91506129838261291c565b604082019050919050565b600060208201905081810360008301526129a78161296b565b9050919050565b600081905092915050565b7f46495253545f574f524400000000000000000000000000000000000000000000600082015250565b60006129ef600a836129ae565b91506129fa826129b9565b600a82019050919050565b6000612a10826122ad565b612a1a81856129ae565b9350612a2a8185602086016122c9565b80840191505092915050565b6000612a41826129e2565b9150612a4d8284612a05565b915081905092915050565b7f4e487b7100000000000000000000000000000000000000000000000000000000600052601260045260246000fd5b6000612a928261235f565b9150612a9d8361235f565b925082612aad57612aac612a58565b5b828206905092915050565b7f4e487b7100000000000000000000000000000000000000000000000000000000600052603260045260246000fd5b7f4552433732313a20696e76616c696420746f6b656e2049440000000000000000600082015250565b6000612b1d6018836122b8565b9150612b2882612ae7565b602082019050919050565b60006020820190508181036000830152612b4c81612b10565b9050919050565b7f4552433732313a2061646472657373207a65726f206973206e6f74206120766160008201527f6c6964206f776e65720000000000000000000000000000000000000000000000602082015250565b6000612baf6029836122b8565b9150612bba82612b53565b604082019050919050565b60006020820190508181036000830152612bde81612ba2565b9050919050565b6000612bf18286612a05565b9150612bfd8285612a05565b9150612c098284612a05565b9150819050949350505050565b60008190508160005260206000209050919050565b60008154612c38816127c7565b612c4281866129ae565b94506001821660008114612c5d5760018114612c7257612ca5565b60ff1983168652811515820286019350612ca5565b612c7b85612c16565b60005b83811015612c9d57815481890152600182019150602081019050612c7e565b838801955050505b50505092915050565b7f272f3e3c2f7376673e0000000000000000000000000000000000000000000000600082015250565b6000612ce46009836129ae565b9150612cef82612cae565b600982019050919050565b6000612d068289612c2b565b9150612d128288612a05565b9150612d1e8287612c2b565b9150612d2a8286612a05565b9150612d368285612c2b565b9150612d428284612a05565b9150612d4d82612cd7565b9150819050979650505050505050565b7f7b226e616d65223a2022466c6167000000000000000000000000000000000000600082015250565b6000612d93600e836129ae565b9150612d9e82612d5d565b600e82019050919050565b7f222c20226465736372697074696f6e223a20224120686967686c79206163636c60008201527f61696d656420636f6c6c656374696f6e206f6620666c6167732e222c2022696d60208201527f616765223a2022646174613a696d6167652f7376672b786d6c3b62617365363460408201527f2c00000000000000000000000000000000000000000000000000000000000000606082015250565b6000612e516061836129ae565b9150612e5c82612da9565b606182019050919050565b7f227d000000000000000000000000000000000000000000000000000000000000600082015250565b6000612e9d6002836129ae565b9150612ea882612e67565b600282019050919050565b6000612ebe82612d86565b9150612eca8285612a05565b9150612ed582612e44565b9150612ee18284612a05565b9150612eec82612e90565b91508190509392505050565b7f646174613a6170706c69636174696f6e2f6a736f6e3b6261736536342c000000600082015250565b6000612f2e601d836129ae565b9150612f3982612ef8565b601d82019050919050565b6000612f4f82612f21565b9150612f5b8284612a05565b915081905092915050565b7f5345434f4e445f574f5244000000000000000000000000000000000000000000600082015250565b6000612f9c600b836129ae565b9150612fa782612f66565b600b82019050919050565b6000612fbd82612f8f565b9150612fc98284612a05565b915081905092915050565b7f54484952445f574f524400000000000000000000000000000000000000000000600082015250565b600061300a600a836129ae565b915061301582612fd4565b600a82019050919050565b600061302b82612ffd565b91506130378284612a05565b915081905092915050565b600061304e8285612a05565b915061305a8284612a05565b91508190509392505050565b7f4552433732313a207472616e736665722066726f6d20696e636f72726563742060008201527f6f776e6572000000000000000000000000000000000000000000000000000000602082015250565b60006130c26025836122b8565b91506130cd82613066565b604082019050919050565b600060208201905081810360008301526130f1816130b5565b9050919050565b7f4552433732313a207472616e7366657220746f20746865207a65726f2061646460008201527f7265737300000000000000000000000000000000000000000000000000000000602082015250565b60006131546024836122b8565b915061315f826130f8565b604082019050919050565b6000602082019050818103600083015261318381613147565b9050919050565b60006131968284612a05565b915081905092915050565b7f4e487b7100000000000000000000000000000000000000000000000000000000600052601160045260246000fd5b60006131db8261235f565b91506131e68361235f565b92508282019050808211156131fe576131fd6131a1565b5b92915050565b600061320f8261235f565b915061321a8361235f565b92508261322a57613229612a58565b5b828204905092915050565b60006132408261235f565b915061324b8361235f565b92508282026132598161235f565b915082820484148315176132705761326f6131a1565b5b5092915050565b7f45524337323155524953746f726167653a2055524920736574206f66206e6f6e60008201527f6578697374656e7420746f6b656e000000000000000000000000000000000000602082015250565b60006132d3602e836122b8565b91506132de82613277565b604082019050919050565b60006020820190508181036000830152613302816132c6565b9050919050565b60006020601f8301049050919050565b600082821b905092915050565b6000600883026133567fffffffffffffffffffffffffffffffffffffffffffffffffffffffffffffffff82613319565b6133608683613319565b95508019841693508086168417925050509392505050565b6000819050919050565b600061339d6133986133938461235f565b613378565b61235f565b9050919050565b6000819050919050565b6133b783613382565b6133cb6133c3826133a4565b848454613326565b825550505050565b600090565b6133e06133d3565b6133eb8184846133ae565b505050565b5b8181101561340f576134046000826133d8565b6001810190506133f1565b5050565b601f8211156134545761342581612c16565b61342e84613309565b8101602085101561343d578190505b61345161344985613309565b8301826133f0565b50505b505050565b600082821c905092915050565b600061347760001984600802613459565b1980831691505092915050565b60006134908383613466565b9150826002028217905092915050565b6134a9826122ad565b67ffffffffffffffff8111156134c2576134c16125aa565b5b6134cc82546127c7565b6134d7828285613413565b600060209050601f83116001811461350a57600084156134f8578287015190505b6135028582613484565b86555061356a565b601f19841661351886612c16565b60005b828110156135405784890151825560018201915060208501945060208101905061351b565b8683101561355d5784890151613559601f891682613466565b8355505b6001600288020188555050505b505050505050565b6000606082019050818103600083015261358c8186612304565b905061359b602083018561250a565b6135a860408301846123f4565b949350505050565b7f4552433732313a20617070726f766520746f2063616c6c657200000000000000600082015250565b60006135e66019836122b8565b91506135f1826135b0565b602082019050919050565b60006020820190508181036000830152613615816135d9565b9050919050565b7f4552433732313a207472616e7366657220746f206e6f6e20455243373231526560008201527f63656976657220696d706c656d656e7465720000000000000000000000000000602082015250565b60006136786032836122b8565b91506136838261361c565b604082019050919050565b600060208201905081810360008301526136a78161366b565b9050919050565b60006136b98261235f565b91506136c48361235f565b92508282039050818111156136dc576136db6131a1565b5b92915050565b600081519050919050565b600082825260208201905092915050565b6000613709826136e2565b61371381856136ed565b93506137238185602086016122c9565b61372c816122f3565b840191505092915050565b600060808201905061374c60008301876123f4565b61375960208301866123f4565b613766604083018561250a565b818103606083015261377881846136fe565b905095945050505050565b6000815190506137928161221e565b92915050565b6000602082840312156137ae576137ad6121e8565b5b60006137bc84828501613783565b91505092915050565b7f4552433732313a206d696e7420746f20746865207a65726f2061646472657373600082015250565b60006137fb6020836122b8565b9150613806826137c5565b602082019050919050565b6000602082019050818103600083015261382a816137ee565b9050919050565b7f4552433732313a20746f6b656e20616c7265616479206d696e74656400000000600082015250565b6000613867601c836122b8565b915061387282613831565b602082019050919050565b600060208201905081810360008301526138968161385a565b905091905056fe416e204e465420772f20494420257320686173206265656e206d696e74656420746f2025734142434445464748494a4b4c4d4e4f505152535455565758595a6162636465666768696a6b6c6d6e6f707172737475767778797a303132333435363738392b2fa26469706673582212209f7cffd3643c974035644028d44cded9151f7e8a9efc2f26afa28749aab2eb7c64736f6c634300081100333c7376672076696577426f783d273020302039303020363030272077696474683d2739303027206865696768743d273630302720786d6c6e733d27687474703a2f2f7777772e77332e6f72672f323030302f737667273e3c706174682066696c6c3d272720643d274d302030683930307636303048307a272f3e3c7061746820643d274d3020313939683930307634303248305a272066696c6c3d27272f3e3c7061746820643d274d3020333939683930307632303248305a272066696c6c3d27",
  "linkReferences": {},
  "deployedLinkReferences": {}
}